:020000040000FA
:020000000528D1
:08000800392821006F30990036
:1000100023008C018D018F012100E0308C008D01C7
:10002000F8308E00FC308F00210001309500E83060
:100030008B002700F03098008801A001A101A201E7
:10004000A3018C018C018D018E018F01840185013A
:1000500086018501A401B10101308C002030A5008A
:100060006430A6000A30A700FA30A8000230A900C8
:1000700038280B193C28442817214A205720D8201B
:100080000B1106309500090062208E0127009901AE
:10009000880109008C0D0C1A5128A50A2508840036
:1000A000080001308C002030A50084000800000802
:1000B00035218D005C20080022302506031D080034
:1000C0008D130800FB308E000E1EB7288E1EBD2833
:1000D0000E1FC3288E1FC928FD308E000E1E9F28BC
:1000E0008E1EA5280E1FAB288E1FB128FE308E0055
:1000F0000E1E80288E1E86280E1F8C288E1F92288A
:10010000A4190800D1200330A0000800A419080099
:10011000D1200630A0000800A4190800D120093021
:10012000A00008000321A4180800A41DA415241D84
:100130009C2824110F10080024150F140800A4197E
:100140000800D1200230A0000800A4190800D12026
:100150000530A0000800A4190800D1200830A00034
:100160000800A4190800D1200030A0000800A4193C
:100170000800D1200130A0000800A4190800D120F7
:100180000430A0000800A4190800D1200730A00006
:100190000800A001A101A201A3010F108F10A4016A
:1001A00008002208A3002108A2002008A1000800DE
:1001B0000321A4180800241D0800A60B08006430C1
:1001C000A600A70B08000A30A7000030200603197C
:1001D000EB28A00308000930A00000302106031915
:1001E000F328A10308000530A100003022060319FE
:1001F000FB28A20308000930A200003023060319DF
:100200000800A30308001F308600060A8600243079
:100210000606031911290108003A03190529A4103B
:100220000800A4142411A41924160F100800241E79
:100230000800A41C0800A80B0800FA30A800A90BAD
:1002400008000230A9002F2106303106031D29299C
:100250002B29B10A08008F10A401B10109008F1CDD
:1002600033298F1008008F1408000B00C034F934B4
:10027000A434B034993492348234F83480349034D5
:020000040001F9
:02000E00E43FCD
:00000001FF
